:1000000040080010690B0000C50B0000DF0B00006A
:10001000C50B0000C50B0000C50B00000000000070
:10002000000000000000000000000000C50B000000
:10003000C50B000000000000C50B0000C50B000050
:10004000C50B0000C50B0000C50B0000C50B000070
:10005000C50B0000C50B0000C50B0000C50B000060
:10006000C50B0000C50B0000C50B0000C50B000050
:10007000C50B0000C50B0000C50B0000C50B000040
:10008000C50B0000C50B0000C50B0000C50B000030
:10009000C50B0000C50B0000C50B0000C50B000020
:1000A000C50B0000C50B0000C50B0000C50B000010
:1000B000C50B0000C50B0000C50B0000C50B000000
:1000C000C50B0000C50B0000C50B000080B582B059
:1000D00000AF7860154B1B785A1CD1B2134A1170CF
:1000E0001A467B68D9B2124B9954104B1B781A46AA
:1000F0000F4B002199540D4B1B7801330F2B05D862
:100100007B680A2B02D07B68002B0CD1074B0022A6
:100110001A70074B04201946002200F057FD0346D1
:10012000002B00D000BF0837BD4680BD3C04001046
:100130002C04001080B400AF4E4B2022C3F8A02145
:100140004C4BD3F8A03103F02003002B07D000BFA5
:10015000484BD3F8A03103F04003002BF8D0454BB7
:100160000322C3F80421434B0022C3F8A821414BCA
:100170000022C3F8AC213F4B0122C3F80C213D4BB8
:100180003D4AC3F884203B4BAA22C3F88C20394B4C
:100190005522C3F88C20374B0122C3F88020354B01
:1001A000AA22C3F88C20334B5522C3F88C2000BF01
:1001B000304BD3F8883003F08063002BF8D02D4B00
:1001C0000322C3F880202B4BAA22C3F88C20294B92
:1001D0005522C3F88C2000BF264BD3F8883003F09B
:1001E0004073002BF8D0234B2322C3F8A420214BCB
:1001F000AA22C3F8AC201F4B5522C3F8AC201D4BDC
:100200000122C3F8A0201B4BAA22C3F8AC20194B33
:100210005522C3F8AC2000BF164BD3F8A83003F426
:100220008063002BF8D0134B0322C3F8A020114B9E
:10023000AA22C3F8AC200F4B5522C3F8AC2000BF54
:100240000C4BD3F8A83003F44073002BF8D0094BC3
:100250000A4AC3F8C420074B0022C3F8C821054B43
:1002600043F23A021A60064B00229A60BD465DF8DE
:10027000047B704700C00F4063000500DE87280440
:1002800000ED00E00000000080B586B000AF142350
:100290007B61FFF74FFF0023FB7402207969012285
:1002A00000F02AFC0220102100F04AFC404A404B9A
:1002B000D3F8C43043F48053C2F8C4303D4A3D4BB8
:1002C0005B6823F43F1353603A4A3A4B5B6843F44C
:1002D00080435360384BFB60384A384B1B6843F00F
:1002E000010313603549354B1A68FB683448A0FB9D
:1002F00003039B0C013B1B0213430B602F4A2F4B44
:100300001B6843F4001313602C4A2C4B1B6823F02A
:10031000FF031360294A294B1B6843F0807343F0A5
:1003200001031360FB7C9B001A46264B13441B6899
:10033000BB60BB68002BF5DA204A204B1B6823F01A
:10034000E0631360BB681B09DBB27B60786800F078
:1003500093FD02460B461046194613A3D3E900232A
:1003600000F000FE02460B46104619464FF0000210
:10037000154B00F021FF02460B46104619464FF080
:100380000002124B00F0EEFD02460B4610461946E5
:1003900000F0FAFF03463B600D4879683A6800F0C8
:1003A00019FBB1E7AFF300806666666666660A40D1
:1003B00000C00F4000C0024090D003000040034046
:1003C00083DE1B43104003400000B0400000594052
:1003D000C813000080B582B000AF0346FB71FB7903
:1003E0001846FFF773FE0837BD4680BD80B483B062
:1003F00000AF78600B46FB707B68FA781A700123B7
:1004000018460C37BD465DF8047B704780B485B054
:1004100000AF786039600023FB600AE07B685A1CFB
:100420007A603A68511C396012781A70FB6801339F
:10043000FB603B681B78002BF0D1FB681846143733
:10044000BD465DF8047B704780B586B000AFF860AC
:100450007A603B600B46FB7200237B617B68013B4B
:100460007B603B68092B10D93B681E4AA2FB032323
:10047000DB08FA7AF86811467A68FFF7E5FF7861D9
:100480007B69FA681344FB6011E00DE0FB7AF868C1
:100490001946FFF7ABFFFB680133FB607B69013353
:1004A0007B617B68013B7B607B68002BEEDC3968FD
:1004B0000C4BA3FB0123DA0813469B0013445B009B
:1004C000CA1AD3B23033DBB2F8681946FFF78EFF91
:1004D00002467B6913447B617B6918461837BD4629
:1004E00080BD00BFCDCCCCCC90B587B000AFF8605C
:1004F0007A603B600B46FB7200237B613B68002BFC
:1005000003DA3B685B423B6101E03B683B617B682F
:10051000013B7B603B69092B25D93B68002B0FDA37
:100520003B69314AA2FB0323DB085B421C46FB7A92
:10053000F86819467A682346FFF7D6FF78610DE020
:100540003B69294AA2FB0323DB081C46FB7AF868B7
:1005500019467A682346FFF7C7FF78617B69FA6816
:100560001344FB6025E03B68002B02DA7B68013B0B
:100570007B600DE0FB7AF8681946FFF737FFFB68F0
:100580000133FB607B6901337B617B68013B7B60EE
:100590007B68002BEEDC3B68002B0ADAF8682D2123
:1005A000FFF724FF02467B6913447B61FB6801333C
:1005B000FB6039690C4BA3FB0123DA0813469B004F
:1005C00013445B00CA1AD3B23033DBB2F868194661
:1005D000FFF70CFF02467B6913447B617B69184679
:1005E0001C37BD4690BD00BFCDCCCCCC90B589B0FA
:1005F00002AFF8607A601A460B46FB721346BB7274
:1006000000237B617B68013B7B60BB6A1B09002B7D
:1006100013D0BB6A1B09FA7ABC7A0093F8681146BA
:100620007A682346FFF7E2FF02467B6913447B6149
:100630007B69FA681344FB6011E00DE0FB7AF8680F
:100640001946FFF7D3FEFB680133FB607B6901337A
:100650007B617B68013B7B607B68002BEEDCBB6AC7
:1006600003F00F03092B0BD8BB6ADBB203F00F03B7
:10067000DBB23033DBB2F8681946FFF7B7FE19E09A
:10068000BB7A002B0BD0BB6ADBB203F00F03DBB2EB
:100690003733DBB2F8681946FFF7A8FE0AE0BB6AF9
:1006A000DBB203F00F03DBB25733DBB2F868194655
:1006B000FFF79CFE7B6901337B617B6918461C3721
:1006C000BD4690BD90B58BB002AFF860B9607A605E
:1006D0003B600023BB6100237B61FB68002B02D0E1
:1006E000FB6800221A70FCE07B681B78252B0BD07E
:1006F000FB685A1CFA607A68511C796012781A708B
:100700007B6901337B61ECE07B6801331B78252B2F
:100710000BD1FB685A1CFA6025221A707B680233E1
:100720007B607B6901337B61DBE02023FB77002367
:10073000BB777B6801337B607B681B78302B04D1EF
:100740003023FB777B6801337B600EE0BB7F1A466A
:10075000920013445B00DAB27B681B781344DBB26F
:10076000303BBB777B6801337B607B681B782F2B2A
:1007700003D97B681B78392BE8D9BA7F7B6913448E
:100780001A46BB689A4205D9BB68DAB27B69DBB20C
:10079000D31ABB777B681B78583B202B00F29380E1
:1007A00001A252F823F000BF7F080000C708000034
:1007B000C7080000C7080000C7080000C7080000FD
:1007C000C7080000C7080000C7080000C7080000ED
:1007D000C7080000B10800002D080000C70800008D
:1007E000C7080000C7080000C70800002D08000067
:1007F000C7080000C7080000C7080000C7080000BD
:10080000C7080000C7080000C7080000C7080000AC
:10081000C70800009D080000C70800004708000046
:10082000C7080000C708000061080000BC7F3B68E3
:100830001A1D3A601B68FA7FF86811462246FFF7D6
:1008400053FEB86142E0BC7F3B681A1D3A601B68EA
:10085000FA7FF86811462246FFF7F6FDB86135E0E9
:10086000BC7F3B681A1D3A601B68FA7F0093F868EA
:10087000114622460023FFF7B9FEB86126E0BC7F8F
:100880003B681A1D3A601B68FA7F0093F8681146AE
:1008900022460123FFF7AAFEB86117E03B681A1D44
:1008A0003A601B68F8681946FFF7B0FDB8610DE0C3
:1008B0003B681A1D3A601B68DBB2F8681946FFF7FF
:1008C00095FDB86102E04FF0FF3325E07B6801330E
:1008D0007B60BB69FA681344FB607A69BB691344A7
:1008E0007B617B681B78002B04D07A69BB689A42D5
:1008F000FFF4FAAE7A69BB689A4203D2FB68002221
:100900001A7008E0FB68013BFB60FB6800221A706C
:100910007B69013B7B617B6918462437BD4690BDEE
:1009200080B584B000AFF860B9607A60F86864217F
:10093000BA687B68FFF7C6FE034618461037BD4607
:1009400080BD00BFB0B5A6B000AFF860B9607A60F6
:10095000144B07F110041D460FCD0FC40FCD0FC46B
:100960002B68236007F134031846B9687A68FFF7EB
:10097000D7FF0346632B09DD0B4B1B68DB6807F1D0
:1009800010021046194600F059F8FEE707F134034B
:100990001846F96800F052F8034618469837BD46E5
:1009A000B0BD00BFE01300002804001080B582B085
:1009B00000AF78603960064B1B689B681846796801
:1009C0003A68FFF7BFFF034618460837BD4680BDAB
:1009D000280400100FB480B582B000AF07F11403F3
:1009E0003B6038693968FFF7E1FF78607B6818463B
:1009F0000837BD46BDE8804004B0704780B582B07E
:100A000000AF786039600C4B1B689A683B689A426B
:100A100005D0094B1B68DA683B689A4206D17B68AF
:100A2000DBB21846FFF7D6FC7B6801E04FF0FF33DE
:100A300018460837BD4680BD2804001080B584B034
:100A400000AF786039600023FB6012E07B681B78A0
:100A500018463968FFF7D2FF0346B3F1FF3F02D1D2
:100A60004FF0FF330AE0FB680133FB607B68013322
:100A70007B607B681B78002BE8D1FB681846103739
:100A8000BD4680BD80B485B000AF0346FB71002336
:100A9000FB60FB79042B1CD801A252F823F000BFA5
:100AA000B50A0000BB0A0000C10A0000C70A000026
:100AB000CD0A00000B4BFB600CE00B4BFB6009E028
:100AC0000A4BFB6006E00A4BFB6003E0094BFB604E
:100AD00000E000BFFB6818461437BD465DF8047B94
:100AE000704700BF00C0092020C0092040C0092075
:100AF00060C0092080C0092080B584B000AF0346E3
:100B00003960FB711346BB71FB791846FFF7BAFFDA
:100B1000F860FB68002B10D0BB79002B06D0FB6877
:100B20001A683B681A43FB681A6006E0FB681A689B
:100B30003B68DB431A40FB681A601037BD4680BD36
:100B400080B584B000AF03463960FB71FB7918466D
:100B5000FFF798FFF860FB68002B02D0FB683A684B
:100B60009A611037BD4680BD80B582B000AF104B92
:100B70007B60104B3B6007E03B681A1D3A607A6867
:100B8000111D796012681A603B680B4A9342F3D3D7
:100B90000A480B494FF000028842B8BF40F8042BC6
:100BA000FADBFFF7C7FAFFF76FFB0837BD4680BDDA
:100BB00004140000000000102C0400102C0400108D
:100BC0004004001080B400AFFEE700BFABBE01E000
:100BD00000207047002A00D010600120704706985E
:100BE0000188034A914202D1043006907047FEE723
:100BF000ABBE000081F0004102E000BF83F0004383
:100C000030B54FEA41044FEA430594EA050F08BFA7
:100C100090EA020F1FBF54EA000C55EA020C7FEA6B
:100C2000645C7FEA655C00F0E2804FEA5454D4EBE8
:100C30005555B8BF6D420CDD2C4480EA020281EAB2
:100C4000030382EA000083EA010180EA020281EAEA
:100C50000303362D88BF30BD11F0004F4FEA01313C
:100C60004FF4801C4CEA113102D0404261EB41014B
:100C700013F0004F4FEA03334CEA133302D05242D1
:100C800063EB430394EA050F00F0A780A4F101048D
:100C9000D5F1200E0DDB02FA0EFC22FA05F28018C7
:100CA00041F1000103FA0EF2801843FA05F35941AD
:100CB0000EE0A5F120050EF1200E012A03FA0EFC2C
:100CC00028BF4CF0020C43FA05F3C01851EBE37156
:100CD00001F0004507D54FF0000EDCF1000C7EEB73
:100CE00000006EEB0101B1F5801F1BD3B1F5001FB1
:100CF0000CD349085FEA30004FEA3C0C04F10104D0
:100D00004FEA445212F5800F80F09A80BCF1004FF8
:100D100008BF5FEA500C50F1000041EB045141EA7A
:100D2000050130BD5FEA4C0C404141EB010111F47B
:100D3000801FA4F10104E9D191F0000F04BF014626
:100D40000020B1FA81F308BF2033A3F10B03B3F104
:100D500020020CDA0C3208DD02F1140CC2F10C0294
:100D600001FA0CF021FA02F10CE002F11402D8BFF2
:100D7000C2F1200C01FA02F120FA0CFCDCBF41EABE
:100D80000C019040E41AA2BF01EB0451294330BD8D
:100D90006FEA04041F3C1CDA0C340EDC04F114046A
:100DA000C4F1200220FA04F001FA02F340EA030041
:100DB00021FA04F345EA030130BDC4F10C04C4F187
:100DC000200220FA02F001FA04F340EA0300294667
:100DD00030BD21FA04F0294630BD94F0000F83F4B1
:100DE000801306BF81F480110134013D4EE77FEA94
:100DF000645C18BF7FEA655C29D094EA050F08BFE0
:100E000090EA020F05D054EA000C04BF19461046C0
:100E100030BD91EA030F1EBF0021002030BD5FEA04
:100E2000545C05D14000494128BF41F0004130BD2C
:100E300014F580043CBF01F5801130BD01F0004580
:100E400045F0FE4141F470014FF0000030BD7FEAF3
:100E5000645C1ABF194610467FEA655C1CBF0B46EE
:100E6000024650EA013406BF52EA033591EA030F05
:100E700041F4002130BD00BF90F0000F04BF0021FD
:100E8000704730B54FF4806404F132044FF0000530
:100E90004FF0000150E700BF90F0000F04BF0021A9
:100EA000704730B54FF4806404F1320410F000450F
:100EB00048BF40424FF000013EE700BF42004FEA0A
:100EC000E2014FEA31014FEA02701FBF12F07F4387
:100ED00093F07F4F81F06051704792F0000F14BF84
:100EE00093F07F4F704730B54FF4607401F00045C8
:100EF00021F0004120E700BF50EA010208BF70471F
:100F000030B54FF000050AE050EA010208BF704713
:100F100030B511F0004502D5404261EB41014FF47C
:100F2000806404F132045FEA915C3FF4DCAE4FF080
:100F300003025FEADC0C18BF03325FEADC0C18BF67
:100F4000033202EBDC02C2F1200300FA03FC20FAB8
:100F500002F001FA03FE40EA0E0021FA02F1144405
:100F6000C1E600BF70B54FF0FF0C4CF4E06C1CEA1A
:100F700011541DBF1CEA135594EA0C0F95EA0C0F8F
:100F800000F0DEF82C4481EA030621EA4C5123EA02
:100F90004C5350EA013518BF52EA033541F4801131
:100FA00043F4801338D0A0FB02CE4FF00005E1FBE4
:100FB00002E506F00042E0FB03E54FF00006E1FB2E
:100FC00003569CF0000F18BF4EF0010EA4F1FF0471
:100FD000B6F5007F64F5407404D25FEA4E0E6D41B1
:100FE00046EB060642EAC62141EA55514FEAC520C2
:100FF00040EA5E504FEACE2EB4F1FD0C88BFBCF53E
:10100000E06F1ED8BEF1004F08BF5FEA500E50F1EE
:10101000000041EB045170BD06F0004646EA0101B4
:1010200040EA020081EA0301B4EB5C04C2BFD4EBE6
:101030000C0541EA045170BD41F480114FF0000EDF
:10104000013C00F3AB8014F1360FDEBF002001F04D
:10105000004170BDC4F10004203C35DA0C341BDCC7
:1010600004F11404C4F1200500FA05F320FA04F099
:1010700001FA05F240EA020001F0004221F00041CD
:1010800010EBD37021FA04F642EB06015EEA430E40
:1010900008BF20EAD37070BDC4F10C04C4F1200570
:1010A00000FA04F320FA05F001FA04F240EA020023
:1010B00001F0004110EBD37041F100015EEA430EF4
:1010C00008BF20EAD37070BDC4F1200500FA05F214
:1010D0004EEA020E20FA04F301FA05F243EA020393
:1010E00021FA04F001F0004121FA04F220EA0200A2
:1010F00000EBD3705EEA430E08BF20EAD37070BDE8
:1011000094F0000F0FD101F00046400041EB0101C7
:1011100011F4801F08BF013CF7D041EA060195F0A9
:10112000000F18BF704703F00046520043EB030363
:1011300013F4801F08BF013DF7D043EA0603704750
:1011400094EA0C0F0CEA135518BF95EA0C0F0CD05B
:1011500050EA410618BF52EA4306D1D181EA0301A1
:1011600001F000414FF0000070BD50EA410606BF9B
:101170001046194652EA430619D094EA0C0F02D1E0
:1011800050EA013613D195EA0C0F05D152EA033625
:101190001CBF104619460AD181EA030101F0004143
:1011A00041F0FE4141F470014FF0000070BD41F08C
:1011B000FE4141F4780170BD70B54FF0FF0C4CF466
:1011C000E06C1CEA11541DBF1CEA135594EA0C0F85
:1011D00095EA0C0F00F0A7F8A4EB050481EA030ED2
:1011E00052EA03354FEA013100F088804FEA0333B9
:1011F0004FF0805545EA131343EA12634FEA022287
:1012000045EA111545EA10654FEA00260EF0004147
:101210009D4208BF964244F1FD0404F5407402D299
:101220005B084FEA3202B61A65EB03055B084FEA2A
:1012300032024FF480104FF4002CB6EB020E75EB27
:10124000030E22BFB61A754640EA0C005B084FEA4F
:101250003202B6EB020E75EB030E22BFB61A7546CC
:1012600040EA5C005B084FEA3202B6EB020E75EB17
:10127000030E22BFB61A754640EA9C005B084FEA8F
:101280003202B6EB020E75EB030E22BFB61A75469C
:1012900040EADC0055EA060E18D04FEA051545EA8B
:1012A00016754FEA06164FEAC30343EA52734FEA34
:1012B000C2025FEA1C1CC0D111F4801F0BD141EAAD
:1012C00000014FF000004FF0004CB6E711F4801F12
:1012D00004BF01430020B4F1FD0C88BFBCF5E06FF2
:1012E0003FF6AFAEB5EB030C04BFB6EB020C5FEA02
:1012F000500C50F1000041EB045170BD0EF0004E57
:101300004EEA113114EB5C04C2BFD4EB0C0541EA88
:10131000045170BD41F480114FF0000E013C90E685
:1013200045EA060E8DE60CEA135594EA0C0F08BF49
:1013300095EA0C0F3FF43BAF94EA0C0F0AD150EA48
:1013400001347FF434AF95EA0C0F7FF425AF1046DB
:1013500019462CE795EA0C0F06D152EA03353FF403
:10136000FDAE1046194622E750EA410618BF52EA80
:1013700043067FF4C5AE50EA41047FF40DAF52EA54
:1013800043057FF4EBAE12E74A0011D212F50012CA
:1013900011D20DD56FF47873B3EB62520ED44FEACD
:1013A000C12343F0004343EA505323FA02F070474D
:1013B0004FF00000704750EA013002D14FF0FF308B
:1013C00070474FF0000070474144435F44617461CF
:1013D0002025642056616C75652025640A00000094
:1013E000737464696F2E633A20696E63726561730A
:1013F00065204D41585F535452494E475F53495AF7
:04140000450A0D008C
:1014040000000000000000000100000000000000D7
:1014140000000000000000000000000000000000C8
:1014240000000000000000000000000000000000B8
:1014340000000000000000000000000000000000A8
:101444000000000000000000000000000000000098
:0C182400000000000000000000000010A8
:00000001FF
